{
  "_format": "hh-sol-artifact-1",
  "contractName": "ElectionContract",
  "sourceName": "api/blockchain/contracts/ElectionContract.sol",
  "abi": [
    {
      "inputs": [],
      "stateMutability": "nonpayable",
      "type": "constructor"
    },
    {
      "anonymous": false,
      "inputs": [
        {
          "indexed": false,
          "internalType": "uint256",
          "name": "candidateId",
          "type": "uint256"
        },
        {
          "indexed": false,
          "internalType": "uint256",
          "name": "electionId",
          "type": "uint256"
        },
        {
          "indexed": false,
          "internalType": "string",
          "name": "name",
          "type": "string"
        },
        {
          "indexed": false,
          "internalType": "uint256",
          "name": "positionId",
          "type": "uint256"
        }
      ],
      "name": "CandidateAdded",
      "type": "event"
    },
    {
      "anonymous": false,
      "inputs": [
        {
          "indexed": false,
          "internalType": "uint256",
          "name": "electionId",
          "type": "uint256"
        },
        {
          "indexed": false,
          "internalType": "string",
          "name": "name",
          "type": "string"
        }
      ],
      "name": "ElectionCreated",
      "type": "event"
    },
    {
      "anonymous": false,
      "inputs": [
        {
          "indexed": false,
          "internalType": "uint256",
          "name": "electionId",
          "type": "uint256"
        }
      ],
      "name": "ElectionEnded",
      "type": "event"
    },
    {
      "anonymous": false,
      "inputs": [
        {
          "indexed": false,
          "internalType": "uint256",
          "name": "electionId",
          "type": "uint256"
        }
      ],
      "name": "ElectionStarted",
      "type": "event"
    },
    {
      "anonymous": false,
      "inputs": [
        {
          "indexed": false,
          "internalType": "uint256",
          "name": "positionId",
          "type": "uint256"
        },
        {
          "indexed": false,
          "internalType": "uint256",
          "name": "electionId",
          "type": "uint256"
        },
        {
          "indexed": false,
          "internalType": "string",
          "name": "name",
          "type": "string"
        },
        {
          "indexed": false,
          "internalType": "uint256",
          "name": "hostelId",
          "type": "uint256"
        },
        {
          "indexed": false,
          "internalType": "uint256",
          "name": "collegeId",
          "type": "uint256"
        }
      ],
      "name": "PositionAdded",
      "type": "event"
    },
    {
      "inputs": [
        {
          "internalType": "uint256",
          "name": "electionId",
          "type": "uint256"
        },
        {
          "internalType": "string",
          "name": "name",
          "type": "string"
        },
        {
          "internalType": "uint256",
          "name": "positionId",
          "type": "uint256"
        }
      ],
      "name": "addCandidate",
      "outputs": [],
      "stateMutability": "nonpayable",
      "type": "function"
    },
    {
      "inputs": [
        {
          "internalType": "uint256",
          "name": "electionId",
          "type": "uint256"
        },
        {
          "internalType": "string",
          "name": "name",
          "type": "string"
        },
        {
          "internalType": "uint256",
          "name": "hostelId",
          "type": "uint256"
        },
        {
          "internalType": "uint256",
          "name": "collegeId",
          "type": "uint256"
        }
      ],
      "name": "addPosition",
      "outputs": [],
      "stateMutability": "nonpayable",
      "type": "function"
    },
    {
      "inputs": [],
      "name": "admin",
      "outputs": [
        {
          "internalType": "address",
          "name": "",
          "type": "address"
        }
      ],
      "stateMutability": "view",
      "type": "function"
    },
    {
      "inputs": [],
      "name": "candidateCount",
      "outputs": [
        {
          "internalType": "uint256",
          "name": "",
          "type": "uint256"
        }
      ],
      "stateMutability": "view",
      "type": "function"
    },
    {
      "inputs": [
        {
          "internalType": "uint256",
          "name": "",
          "type": "uint256"
        }
      ],
      "name": "candidates",
      "outputs": [
        {
          "internalType": "uint256",
          "name": "id",
          "type": "uint256"
        },
        {
          "internalType": "string",
          "name": "name",
          "type": "string"
        },
        {
          "internalType": "uint256",
          "name": "positionId",
          "type": "uint256"
        },
        {
          "internalType": "uint256",
          "name": "electionId",
          "type": "uint256"
        }
      ],
      "stateMutability": "view",
      "type": "function"
    },
    {
      "inputs": [
        {
          "internalType": "string",
          "name": "name",
          "type": "string"
        }
      ],
      "name": "createElection",
      "outputs": [],
      "stateMutability": "nonpayable",
      "type": "function"
    },
    {
      "inputs": [],
      "name": "electionCount",
      "outputs": [
        {
          "internalType": "uint256",
          "name": "",
          "type": "uint256"
        }
      ],
      "stateMutability": "view",
      "type": "function"
    },
    {
      "inputs": [
        {
          "internalType": "uint256",
          "name": "",
          "type": "uint256"
        }
      ],
      "name": "elections",
      "outputs": [
        {
          "internalType": "uint256",
          "name": "id",
          "type": "uint256"
        },
        {
          "internalType": "string",
          "name": "name",
          "type": "string"
        },
        {
          "internalType": "bool",
          "name": "isActive",
          "type": "bool"
        }
      ],
      "stateMutability": "view",
      "type": "function"
    },
    {
      "inputs": [
        {
          "internalType": "uint256",
          "name": "electionId",
          "type": "uint256"
        }
      ],
      "name": "endElection",
      "outputs": [],
      "stateMutability": "nonpayable",
      "type": "function"
    },
    {
      "inputs": [
        {
          "internalType": "uint256",
          "name": "electionId",
          "type": "uint256"
        }
      ],
      "name": "getElection",
      "outputs": [
        {
          "components": [
            {
              "internalType": "uint256",
              "name": "id",
              "type": "uint256"
            },
            {
              "internalType": "string",
              "name": "name",
              "type": "string"
            },
            {
              "internalType": "bool",
              "name": "isActive",
              "type": "bool"
            }
          ],
          "internalType": "struct ElectionContract.Election",
          "name": "",
          "type": "tuple"
        }
      ],
      "stateMutability": "view",
      "type": "function"
    },
    {
      "inputs": [
        {
          "internalType": "uint256",
          "name": "electionId",
          "type": "uint256"
        }
      ],
      "name": "getElectionPositions",
      "outputs": [
        {
          "internalType": "uint256[]",
          "name": "",
          "type": "uint256[]"
        }
      ],
      "stateMutability": "view",
      "type": "function"
    },
    {
      "inputs": [
        {
          "internalType": "uint256",
          "name": "positionId",
          "type": "uint256"
        }
      ],
      "name": "getPosition",
      "outputs": [
        {
          "components": [
            {
              "internalType": "uint256",
              "name": "id",
              "type": "uint256"
            },
            {
              "internalType": "uint256",
              "name": "electionId",
              "type": "uint256"
            },
            {
              "internalType": "string",
              "name": "name",
              "type": "string"
            },
            {
              "internalType": "uint256",
              "name": "hostelId",
              "type": "uint256"
            },
            {
              "internalType": "uint256",
              "name": "collegeId",
              "type": "uint256"
            }
          ],
          "internalType": "struct ElectionContract.Position",
          "name": "",
          "type": "tuple"
        }
      ],
      "stateMutability": "view",
      "type": "function"
    },
    {
      "inputs": [
        {
          "internalType": "uint256",
          "name": "positionId",
          "type": "uint256"
        }
      ],
      "name": "getPositionCandidates",
      "outputs": [
        {
          "internalType": "uint256[]",
          "name": "",
          "type": "uint256[]"
        }
      ],
      "stateMutability": "view",
      "type": "function"
    },
    {
      "inputs": [],
      "name": "positionCount",
      "outputs": [
        {
          "internalType": "uint256",
          "name": "",
          "type": "uint256"
        }
      ],
      "stateMutability": "view",
      "type": "function"
    },
    {
      "inputs": [
        {
          "internalType": "uint256",
          "name": "",
          "type": "uint256"
        }
      ],
      "name": "positions",
      "outputs": [
        {
          "internalType": "uint256",
          "name": "id",
          "type": "uint256"
        },
        {
          "internalType": "uint256",
          "name": "electionId",
          "type": "uint256"
        },
        {
          "internalType": "string",
          "name": "name",
          "type": "string"
        },
        {
          "internalType": "uint256",
          "name": "hostelId",
          "type": "uint256"
        },
        {
          "internalType": "uint256",
          "name": "collegeId",
          "type": "uint256"
        }
      ],
      "stateMutability": "view",
      "type": "function"
    },
    {
      "inputs": [
        {
          "internalType": "uint256",
          "name": "electionId",
          "type": "uint256"
        }
      ],
      "name": "startElection",
      "outputs": [],
      "stateMutability": "nonpayable",
      "type": "function"
    }
  ],
  "bytecode": "0x608060405234801561001057600080fd5b50336000806101000a81548173ffffffffffffffffffffffffffffffffffffffff021916908373ffffffffffffffffffffffffffffffffffffffff1602179055506000600181905550612018806100686000396000f3fe608060405234801561001057600080fd5b50600436106101005760003560e01c80639c98bcbb11610097578063e71cd1f911610066578063e71cd1f9146102da578063e7702d05146102f6578063eb02c30114610314578063f851a4401461034457610100565b80639c98bcbb146102405780639d7107771461025c578063a9a981a31461028c578063ac0b3bfb146102aa57610100565b80635e6fef01116100d35780635e6fef01146101a05780636d32dc4b146101d2578063997d2830146101ee57806399fbab881461020c57610100565b80630a6212fc14610105578063128ebca11461013557806315cf4a5f146101515780633477ee2e1461016d575b600080fd5b61011f600480360381019061011a919061133d565b610362565b60405161012c9190611428565b60405180910390f35b61014f600480360381019061014a9190611590565b61041e565b005b61016b600480360381019061016691906115ff565b6106ad565b005b6101876004803603810190610182919061133d565b610809565b60405161019794939291906116d6565b60405180910390f35b6101ba60048036038101906101b5919061133d565b6108c1565b6040516101c99392919061173d565b60405180910390f35b6101ec60048036038101906101e7919061133d565b610980565b005b6101f6610ac8565b604051610203919061177b565b60405180910390f35b6102266004803603810190610221919061133d565b610ace565b604051610237959493929190611796565b60405180910390f35b61025a6004803603810190610255919061133d565b610b8c565b005b6102766004803603810190610271919061133d565b610cd4565b6040516102839190611899565b60405180910390f35b610294610e09565b6040516102a1919061177b565b60405180910390f35b6102c460048036038101906102bf919061133d565b610e0f565b6040516102d19190611428565b60405180910390f35b6102f460048036038101906102ef91906118bb565b610f82565b005b6102fe61113f565b60405161030b919061177b565b60405180910390f35b61032e6004803603810190610329919061133d565b611145565b60405161033b91906119b4565b60405180910390f35b61034c61127d565b6040516103599190611a17565b60405180910390f35b606060008211801561037657506006548211155b6103b5576040517f08c379a00000000000000000000000000000000000000000000000000000000081526004016103ac90611a7e565b60405180910390fd5b6005600083815260200190815260200160002080548060200260200160405190810160405280929190818152602001828054801561041257602002820191906000526020600020905b8154815260200190600101908083116103fe575b50505050509050919050565b60008054906101000a900473ffffffffffffffffffffffffffffffffffffffff1673ffffffffffffffffffffffffffffffffffffffff163373ffffffffffffffffffffffffffffffffffffffff16146104ac576040517f08c379a00000000000000000000000000000000000000000000000000000000081526004016104a390611aea565b60405180910390fd5b6000831180156104be57506001548311155b6104fd576040517f08c379a00000000000000000000000000000000000000000000000000000000081526004016104f490611b56565b60405180910390fd5b60008111801561050f57506006548111155b61054e576040517f08c379a000000000000000000000000000000000000000000000000000000000815260040161054590611a7e565b60405180910390fd5b826003600083815260200190815260200160002060010154146105a6576040517f08c379a000000000000000000000000000000000000000000000000000000000815260040161059d90611bc2565b60405180910390fd5b600760008154809291906105b990611c11565b919050555060405180608001604052806007548152602001838152602001828152602001848152506004600060075481526020019081526020016000206000820151816000015560208201518160010190816106159190611e65565b5060408201518160020155606082015181600301559050506005600082815260200190815260200160002060075490806001815401808255809150506001900390600052602060002001600090919091909150557f325c073d554a663daf53fcbf0e29e919f95768027dc4bb47e7864525ec156dc26007548484846040516106a09493929190611f37565b60405180910390a1505050565b60008054906101000a900473ffffffffffffffffffffffffffffffffffffffff1673ffffffffffffffffffffffffffffffffffffffff163373ffffffffffffffffffffffffffffffffffffffff161461073b576040517f08c379a000000000000000000000000000000000000000000000000000000000815260040161073290611aea565b60405180910390fd5b6001600081548092919061074e90611c11565b919050555060405180606001604052806001548152602001828152602001600015158152506002600060015481526020019081526020016000206000820151816000015560208201518160010190816107a79190611e65565b5060408201518160020160006101000a81548160ff0219169083151502179055509050507f52be7c4e77b4de76b7607d621492061fe13b58597e72dfb5e51ab8f6187ed141600154826040516107fe929190611f83565b60405180910390a150565b600460205280600052604060002060009150905080600001549080600101805461083290611c88565b80601f016020809104026020016040519081016040528092919081815260200182805461085e90611c88565b80156108ab5780601f10610880576101008083540402835291602001916108ab565b820191906000526020600020905b81548152906001019060200180831161088e57829003601f168201915b5050505050908060020154908060030154905084565b60026020528060005260406000206000915090508060000154908060010180546108ea90611c88565b80601f016020809104026020016040519081016040528092919081815260200182805461091690611c88565b80156109635780601f1061093857610100808354040283529160200191610963565b820191906000526020600020905b81548152906001019060200180831161094657829003601f168201915b5050505050908060020160009054906101000a900460ff16905083565b60008054906101000a900473ffffffffffffffffffffffffffffffffffffffff1673ffffffffffffffffffffffffffffffffffffffff163373ffffffffffffffffffffffffffffffffffffffff1614610a0e576040517f08c379a0000000000000000000000000000000000000000000000000000000008152600401610a0590611aea565b60405180910390fd5b600081118015610a2057506001548111155b610a5f576040517f08c379a0000000000000000000000000000000000000000000000000000000008152600401610a5690611b56565b60405180910390fd5b60016002600083815260200190815260200160002060020160006101000a81548160ff0219169083151502179055507f159eee87222a0489c529f2153c26ad65d718f2cc33ebaa8d399d1dd5b39facaa81604051610abd919061177b565b60405180910390a150565b60015481565b6003602052806000526040600020600091509050806000015490806001015490806002018054610afd90611c88565b80601f0160208091040260200160405190810160405280929190818152602001828054610b2990611c88565b8015610b765780601f10610b4b57610100808354040283529160200191610b76565b820191906000526020600020905b815481529060010190602001808311610b5957829003601f168201915b5050505050908060030154908060040154905085565b60008054906101000a900473ffffffffffffffffffffffffffffffffffffffff1673ffffffffffffffffffffffffffffffffffffffff163373ffffffffffffffffffffffffffffffffffffffff1614610c1a576040517f08c379a0000000000000000000000000000000000000000000000000000000008152600401610c1190611aea565b60405180910390fd5b600081118015610c2c57506001548111155b610c6b576040517f08c379a0000000000000000000000000000000000000000000000000000000008152600401610c6290611b56565b60405180910390fd5b60006002600083815260200190815260200160002060020160006101000a81548160ff0219169083151502179055507f562cd572b2ba3b666cd989fc4ca98419ec81e75f04528df9d9d76fdb7807ee7181604051610cc9919061177b565b60405180910390a150565b610cdc6112a1565b600082118015610cee57506001548211155b610d2d576040517f08c379a0000000000000000000000000000000000000000000000000000000008152600401610d2490611b56565b60405180910390fd5b6002600083815260200190815260200160002060405180606001604052908160008201548152602001600182018054610d6590611c88565b80601f0160208091040260200160405190810160405280929190818152602001828054610d9190611c88565b8015610dde5780601f10610db357610100808354040283529160200191610dde565b820191906000526020600020905b815481529060010190602001808311610dc157829003601f168201915b505050505081526020016002820160009054906101000a900460ff1615151515815250509050919050565b60075481565b6060600060065467ffffffffffffffff811115610e2f57610e2e611465565b5b604051908082528060200260200182016040528015610e5d5781602001602082028036833780820191505090505b509050600080600190505b6006548111610ed05784600360008381526020019081526020016000206001015403610ebd5780838381518110610ea257610ea1611fb3565b5b6020026020010181815250508180610eb990611c11565b9250505b8080610ec890611c11565b915050610e68565b5060008167ffffffffffffffff811115610eed57610eec611465565b5b604051908082528060200260200182016040528015610f1b5781602001602082028036833780820191505090505b50905060005b82811015610f7657838181518110610f3c57610f3b611fb3565b5b6020026020010151828281518110610f5757610f56611fb3565b5b6020026020010181815250508080610f6e90611c11565b915050610f21565b50809350505050919050565b60008054906101000a900473ffffffffffffffffffffffffffffffffffffffff1673ffffffffffffffffffffffffffffffffffffffff163373ffffffffffffffffffffffffffffffffffffffff1614611010576040517f08c379a000000000000000000000000000000000000000000000000000000000815260040161100790611aea565b60405180910390fd5b60008411801561102257506001548411155b611061576040517f08c379a000000000000000000000000000000000000000000000000000000000815260040161105890611b56565b60405180910390fd5b6006600081548092919061107490611c11565b91905055506040518060a00160405280600654815260200185815260200184815260200183815260200182815250600360006006548152602001908152602001600020600082015181600001556020820151816001015560408201518160020190816110e09190611e65565b5060608201518160030155608082015181600401559050507f1091251c9bedff8f06d7dc69fc931f9459bc1189470f03942530ab546a55495460065485858585604051611131959493929190611796565b60405180910390a150505050565b60065481565b61114d6112c4565b60008211801561115f57506006548211155b61119e576040517f08c379a000000000000000000000000000000000000000000000000000000000815260040161119590611a7e565b60405180910390fd5b600360008381526020019081526020016000206040518060a001604052908160008201548152602001600182015481526020016002820180546111e090611c88565b80601f016020809104026020016040519081016040528092919081815260200182805461120c90611c88565b80156112595780601f1061122e57610100808354040283529160200191611259565b820191906000526020600020905b81548152906001019060200180831161123c57829003601f168201915b50505050508152602001600382015481526020016004820154815250509050919050565b60008054906101000a900473ffffffffffffffffffffffffffffffffffffffff1681565b604051806060016040528060008152602001606081526020016000151581525090565b6040518060a0016040528060008152602001600081526020016060815260200160008152602001600081525090565b6000604051905090565b600080fd5b600080fd5b6000819050919050565b61131a81611307565b811461132557600080fd5b50565b60008135905061133781611311565b92915050565b600060208284031215611353576113526112fd565b5b600061136184828501611328565b91505092915050565b600081519050919050565b600082825260208201905092915050565b6000819050602082019050919050565b61139f81611307565b82525050565b60006113b18383611396565b60208301905092915050565b6000602082019050919050565b60006113d58261136a565b6113df8185611375565b93506113ea83611386565b8060005b8381101561141b57815161140288826113a5565b975061140d836113bd565b9250506001810190506113ee565b5085935050505092915050565b6000602082019050818103600083015261144281846113ca565b905092915050565b600080fd5b600080fd5b6000601f19601f8301169050919050565b7f4e487b7100000000000000000000000000000000000000000000000000000000600052604160045260246000fd5b61149d82611454565b810181811067ffffffffffffffff821117156114bc576114bb611465565b5b80604052505050565b60006114cf6112f3565b90506114db8282611494565b919050565b600067ffffffffffffffff8211156114fb576114fa611465565b5b61150482611454565b9050602081019050919050565b82818337600083830152505050565b600061153361152e846114e0565b6114c5565b90508281526020810184848401111561154f5761154e61144f565b5b61155a848285611511565b509392505050565b600082601f8301126115775761157661144a565b5b8135611587848260208601611520565b91505092915050565b6000806000606084860312156115a9576115a86112fd565b5b60006115b786828701611328565b935050602084013567ffffffffffffffff8111156115d8576115d7611302565b5b6115e486828701611562565b92505060406115f586828701611328565b9150509250925092565b600060208284031215611615576116146112fd565b5b600082013567ffffffffffffffff81111561163357611632611302565b5b61163f84828501611562565b91505092915050565b61165181611307565b82525050565b600081519050919050565b600082825260208201905092915050565b60005b83811015611691578082015181840152602081019050611676565b60008484015250505050565b60006116a882611657565b6116b28185611662565b93506116c2818560208601611673565b6116cb81611454565b840191505092915050565b60006080820190506116eb6000830187611648565b81810360208301526116fd818661169d565b905061170c6040830185611648565b6117196060830184611648565b95945050505050565b60008115159050919050565b61173781611722565b82525050565b60006060820190506117526000830186611648565b8181036020830152611764818561169d565b9050611773604083018461172e565b949350505050565b60006020820190506117906000830184611648565b92915050565b600060a0820190506117ab6000830188611648565b6117b86020830187611648565b81810360408301526117ca818661169d565b90506117d96060830185611648565b6117e66080830184611648565b9695505050505050565b600082825260208201905092915050565b600061180c82611657565b61181681856117f0565b9350611826818560208601611673565b61182f81611454565b840191505092915050565b61184381611722565b82525050565b60006060830160008301516118616000860182611396565b50602083015184820360208601526118798282611801565b915050604083015161188e604086018261183a565b508091505092915050565b600060208201905081810360008301526118b38184611849565b905092915050565b600080600080608085870312156118d5576118d46112fd565b5b60006118e387828801611328565b945050602085013567ffffffffffffffff81111561190457611903611302565b5b61191087828801611562565b935050604061192187828801611328565b925050606061193287828801611328565b91505092959194509250565b600060a0830160008301516119566000860182611396565b5060208301516119696020860182611396565b50604083015184820360408601526119818282611801565b91505060608301516119966060860182611396565b5060808301516119a96080860182611396565b508091505092915050565b600060208201905081810360008301526119ce818461193e565b905092915050565b600073ffffffffffffffffffffffffffffffffffffffff82169050919050565b6000611a01826119d6565b9050919050565b611a11816119f6565b82525050565b6000602082019050611a2c6000830184611a08565b92915050565b7f496e76616c696420706f736974696f6e00000000000000000000000000000000600082015250565b6000611a68601083611662565b9150611a7382611a32565b602082019050919050565b60006020820190508181036000830152611a9781611a5b565b9050919050565b7f4f6e6c792061646d696e20616c6c6f7765640000000000000000000000000000600082015250565b6000611ad4601283611662565b9150611adf82611a9e565b602082019050919050565b60006020820190508181036000830152611b0381611ac7565b9050919050565b7f496e76616c696420656c656374696f6e00000000000000000000000000000000600082015250565b6000611b40601083611662565b9150611b4b82611b0a565b602082019050919050565b60006020820190508181036000830152611b6f81611b33565b9050919050565b7f506f736974696f6e206e6f7420696e20656c656374696f6e0000000000000000600082015250565b6000611bac601883611662565b9150611bb782611b76565b602082019050919050565b60006020820190508181036000830152611bdb81611b9f565b9050919050565b7f4e487b7100000000000000000000000000000000000000000000000000000000600052601160045260246000fd5b6000611c1c82611307565b91507fffffffffffffffffffffffffffffffffffffffffffffffffffffffffffffffff8203611c4e57611c4d611be2565b5b600182019050919050565b7f4e487b7100000000000000000000000000000000000000000000000000000000600052602260045260246000fd5b60006002820490506001821680611ca057607f821691505b602082108103611cb357611cb2611c59565b5b50919050565b60008190508160005260206000209050919050565b60006020601f8301049050919050565b600082821b905092915050565b600060088302611d1b7fffffffffffffffffffffffffffffffffffffffffffffffffffffffffffffffff82611cde565b611d258683611cde565b95508019841693508086168417925050509392505050565b6000819050919050565b6000611d62611d5d611d5884611307565b611d3d565b611307565b9050919050565b6000819050919050565b611d7c83611d47565b611d90611d8882611d69565b848454611ceb565b825550505050565b600090565b611da5611d98565b611db0818484611d73565b505050565b5b81811015611dd457611dc9600082611d9d565b600181019050611db6565b5050565b601f821115611e1957611dea81611cb9565b611df384611cce565b81016020851015611e02578190505b611e16611e0e85611cce565b830182611db5565b50505b505050565b600082821c905092915050565b6000611e3c60001984600802611e1e565b1980831691505092915050565b6000611e558383611e2b565b9150826002028217905092915050565b611e6e82611657565b67ffffffffffffffff811115611e8757611e86611465565b5b611e918254611c88565b611e9c828285611dd8565b600060209050601f831160018114611ecf5760008415611ebd578287015190505b611ec78582611e49565b865550611f2f565b601f198416611edd86611cb9565b60005b82811015611f0557848901518255600182019150602085019450602081019050611ee0565b86831015611f225784890151611f1e601f891682611e2b565b8355505b6001600288020188555050505b505050505050565b6000608082019050611f4c6000830187611648565b611f596020830186611648565b8181036040830152611f6b818561169d565b9050611f7a6060830184611648565b95945050505050565b6000604082019050611f986000830185611648565b8181036020830152611faa818461169d565b90509392505050565b7f4e487b7100000000000000000000000000000000000000000000000000000000600052603260045260246000fdfea2646970667358221220942771370077b58512022854af2e5775ddc06e3732a832da81fc20f5bea51bcd64736f6c63430008140033",
  "linkReferences": {},
  "deployedLinkReferences": {}
}