{
  "_format": "hh-sol-artifact-1",
  "contractName": "VoteContract",
  "sourceName": "api/blockchain/contracts/VoteContract.sol",
  "abi": [
    {
      "inputs": [
        {
          "internalType": "address",
          "name": "_electionContract",
          "type": "address"
        }
      ],
      "stateMutability": "nonpayable",
      "type": "constructor"
    },
    {
      "anonymous": false,
      "inputs": [
        {
          "indexed": false,
          "internalType": "uint256",
          "name": "electionId",
          "type": "uint256"
        },
        {
          "indexed": true,
          "internalType": "address",
          "name": "voter",
          "type": "address"
        },
        {
          "indexed": false,
          "internalType": "uint256",
          "name": "positionId",
          "type": "uint256"
        },
        {
          "indexed": false,
          "internalType": "uint256",
          "name": "candidateId",
          "type": "uint256"
        }
      ],
      "name": "VoteCast",
      "type": "event"
    },
    {
      "inputs": [],
      "name": "admin",
      "outputs": [
        {
          "internalType": "address",
          "name": "",
          "type": "address"
        }
      ],
      "stateMutability": "view",
      "type": "function"
    },
    {
      "inputs": [
        {
          "internalType": "uint256",
          "name": "electionId",
          "type": "uint256"
        },
        {
          "internalType": "uint256",
          "name": "positionId",
          "type": "uint256"
        },
        {
          "internalType": "uint256",
          "name": "candidateId",
          "type": "uint256"
        },
        {
          "internalType": "uint256",
          "name": "collegeId",
          "type": "uint256"
        },
        {
          "internalType": "uint256",
          "name": "hostelId",
          "type": "uint256"
        }
      ],
      "name": "castVote",
      "outputs": [],
      "stateMutability": "nonpayable",
      "type": "function"
    },
    {
      "inputs": [],
      "name": "electionContract",
      "outputs": [
        {
          "internalType": "contract ElectionContract",
          "name": "",
          "type": "address"
        }
      ],
      "stateMutability": "view",
      "type": "function"
    },
    {
      "inputs": [
        {
          "internalType": "uint256",
          "name": "positionId",
          "type": "uint256"
        }
      ],
      "name": "getPositionCandidates",
      "outputs": [
        {
          "internalType": "uint256[]",
          "name": "",
          "type": "uint256[]"
        }
      ],
      "stateMutability": "view",
      "type": "function"
    },
    {
      "inputs": [
        {
          "internalType": "uint256",
          "name": "positionId",
          "type": "uint256"
        },
        {
          "internalType": "uint256",
          "name": "candidateId",
          "type": "uint256"
        }
      ],
      "name": "getVoteCount",
      "outputs": [
        {
          "internalType": "uint256",
          "name": "",
          "type": "uint256"
        }
      ],
      "stateMutability": "view",
      "type": "function"
    },
    {
      "inputs": [
        {
          "internalType": "uint256",
          "name": "electionId",
          "type": "uint256"
        }
      ],
      "name": "getVotesByElection",
      "outputs": [
        {
          "components": [
            {
              "internalType": "uint256",
              "name": "electionId",
              "type": "uint256"
            },
            {
              "internalType": "address",
              "name": "voter",
              "type": "address"
            },
            {
              "internalType": "uint256",
              "name": "positionId",
              "type": "uint256"
            },
            {
              "internalType": "uint256",
              "name": "candidateId",
              "type": "uint256"
            },
            {
              "internalType": "uint256",
              "name": "timestamp",
              "type": "uint256"
            }
          ],
          "internalType": "struct VoteContract.Vote[]",
          "name": "",
          "type": "tuple[]"
        }
      ],
      "stateMutability": "view",
      "type": "function"
    },
    {
      "inputs": [
        {
          "internalType": "address",
          "name": "",
          "type": "address"
        },
        {
          "internalType": "uint256",
          "name": "",
          "type": "uint256"
        },
        {
          "internalType": "uint256",
          "name": "",
          "type": "uint256"
        }
      ],
      "name": "hasVoted",
      "outputs": [
        {
          "internalType": "bool",
          "name": "",
          "type": "bool"
        }
      ],
      "stateMutability": "view",
      "type": "function"
    },
    {
      "inputs": [
        {
          "internalType": "uint256",
          "name": "",
          "type": "uint256"
        },
        {
          "internalType": "uint256",
          "name": "",
          "type": "uint256"
        }
      ],
      "name": "voteCount",
      "outputs": [
        {
          "internalType": "uint256",
          "name": "",
          "type": "uint256"
        }
      ],
      "stateMutability": "view",
      "type": "function"
    },
    {
      "inputs": [
        {
          "internalType": "uint256",
          "name": "",
          "type": "uint256"
        }
      ],
      "name": "votes",
      "outputs": [
        {
          "internalType": "uint256",
          "name": "electionId",
          "type": "uint256"
        },
        {
          "internalType": "address",
          "name": "voter",
          "type": "address"
        },
        {
          "internalType": "uint256",
          "name": "positionId",
          "type": "uint256"
        },
        {
          "internalType": "uint256",
          "name": "candidateId",
          "type": "uint256"
        },
        {
          "internalType": "uint256",
          "name": "timestamp",
          "type": "uint256"
        }
      ],
      "stateMutability": "view",
      "type": "function"
    }
  ],
  "bytecode": "0x60806040523480156200001157600080fd5b5060405162001b7938038062001b79833981810160405281019062000037919062000129565b336000806101000a81548173ffffffffffffffffffffffffffffffffffffffff021916908373ffffffffffffffffffffffffffffffffffffffff16021790555080600160006101000a81548173ffffffffffffffffffffffffffffffffffffffff021916908373ffffffffffffffffffffffffffffffffffffffff160217905550506200015b565b600080fd5b600073ffffffffffffffffffffffffffffffffffffffff82169050919050565b6000620000f182620000c4565b9050919050565b6200010381620000e4565b81146200010f57600080fd5b50565b6000815190506200012381620000f8565b92915050565b600060208284031215620001425762000141620000bf565b5b6000620001528482850162000112565b91505092915050565b611a0e806200016b6000396000f3fe608060405234801561001057600080fd5b50600436106100935760003560e01c8063802fa82e11610066578063802fa82e14610148578063ba32941414610178578063de2e19a0146101a8578063e407bcbd146101d8578063f851a440146101f657610093565b80630a6212fc146100985780630ee29404146100c85780635df81330146100f857806363604d381461012c575b600080fd5b6100b260048036038101906100ad9190610cad565b610214565b6040516100bf9190610d98565b60405180910390f35b6100e260048036038101906100dd9190610e18565b6102be565b6040516100ef9190610e86565b60405180910390f35b610112600480360381019061010d9190610cad565b6102fa565b604051610123959493929190610ebf565b60405180910390f35b61014660048036038101906101419190610f12565b610360565b005b610162600480360381019061015d9190610cad565b610992565b60405161016f91906110b3565b60405180910390f35b610192600480360381019061018d91906110d5565b610b80565b60405161019f9190611115565b60405180910390f35b6101c260048036038101906101bd91906110d5565b610ba5565b6040516101cf9190611115565b60405180910390f35b6101e0610bd4565b6040516101ed919061118f565b60405180910390f35b6101fe610bfa565b60405161020b91906111aa565b60405180910390f35b6060600160009054906101000a900473ffffffffffffffffffffffffffffffffffffffff1673ffffffffffffffffffffffffffffffffffffffff16630a6212fc836040518263ffffffff1660e01b81526004016102719190611115565b600060405180830381865afa15801561028e573d6000803e3d6000fd5b505050506040513d6000823e3d601f19601f820116820180604052508101906102b79190611333565b9050919050565b6002602052826000526040600020602052816000526040600020602052806000526040600020600092509250509054906101000a900460ff1681565b6004818154811061030a57600080fd5b90600052602060002090600502016000915090508060000154908060010160009054906101000a900473ffffffffffffffffffffffffffffffffffffffff16908060020154908060030154908060040154905085565b84600160009054906101000a900473ffffffffffffffffffffffffffffffffffffffff1673ffffffffffffffffffffffffffffffffffffffff16639d710777826040518263ffffffff1660e01b81526004016103bc9190611115565b600060405180830381865afa1580156103d9573d6000803e3d6000fd5b505050506040513d6000823e3d601f19601f820116820180604052508101906104029190611502565b60400151610445576040517f08c379a000000000000000000000000000000000000000000000000000000000815260040161043c906115a8565b60405180910390fd5b600260003373ffffffffffffffffffffffffffffffffffffffff1673ffffffffffffffffffffffffffffffffffffffff1681526020019081526020016000206000878152602001908152602001600020600086815260200190815260200160002060009054906101000a900460ff16156104f4576040517f08c379a00000000000000000000000000000000000000000000000000000000081526004016104eb9061163a565b60405180910390fd5b6000600160009054906101000a900473ffffffffffffffffffffffffffffffffffffffff1673ffffffffffffffffffffffffffffffffffffffff1663eb02c301876040518263ffffffff1660e01b81526004016105519190611115565b600060405180830381865afa15801561056e573d6000803e3d6000fd5b505050506040513d6000823e3d601f19601f820116820180604052508101906105979190611702565b9050868160200151146105df576040517f08c379a00000000000000000000000000000000000000000000000000000000081526004016105d690611797565b60405180910390fd5b83816080015114610625576040517f08c379a000000000000000000000000000000000000000000000000000000000815260040161061c90611803565b60405180910390fd5b60008160600151146106785782816060015114610677576040517f08c379a000000000000000000000000000000000000000000000000000000000815260040161066e9061186f565b60405180910390fd5b5b600080600160009054906101000a900473ffffffffffffffffffffffffffffffffffffffff1673ffffffffffffffffffffffffffffffffffffffff16630a6212fc896040518263ffffffff1660e01b81526004016106d69190611115565b600060405180830381865afa1580156106f3573d6000803e3d6000fd5b505050506040513d6000823e3d601f19601f8201168201806040525081019061071c9190611333565b905060005b8151811015610767578782828151811061073e5761073d61188f565b5b6020026020010151036107545760019250610767565b808061075f906118ed565b915050610721565b50816107a8576040517f08c379a000000000000000000000000000000000000000000000000000000000815260040161079f90611981565b60405180910390fd5b6001600260003373ffffffffffffffffffffffffffffffffffffffff1673ffffffffffffffffffffffffffffffffffffffff16815260200190815260200160002060008b815260200190815260200160002060008a815260200190815260200160002060006101000a81548160ff0219169083151502179055506003600089815260200190815260200160002060008881526020019081526020016000206000815480929190610857906118ed565b919050555060046040518060a001604052808b81526020013373ffffffffffffffffffffffffffffffffffffffff1681526020018a81526020018981526020014281525090806001815401808255809150506001900390600052602060002090600502016000909190919091506000820151816000015560208201518160010160006101000a81548173ffffffffffffffffffffffffffffffffffffffff021916908373ffffffffffffffffffffffffffffffffffffffff16021790555060408201518160020155606082015181600301556080820151816004015550503373ffffffffffffffffffffffffffffffffffffffff167f0271f53eebbe20450d9578f28ec279231556c34545b30e2278d754ffd39cd63c8a8a8a60405161097f939291906119a1565b60405180910390a2505050505050505050565b60606000805b6004805490508110156109f35783600482815481106109ba576109b961188f565b5b906000526020600020906005020160000154036109e05781806109dc906118ed565b9250505b80806109eb906118ed565b915050610998565b5060008167ffffffffffffffff811115610a1057610a0f6111db565b5b604051908082528060200260200182016040528015610a4957816020015b610a36610c1e565b815260200190600190039081610a2e5790505b5090506000805b600480549050811015610b74578560048281548110610a7257610a7161188f565b5b90600052602060002090600502016000015403610b615760048181548110610a9d57610a9c61188f565b5b90600052602060002090600502016040518060a0016040529081600082015481526020016001820160009054906101000a900473ffffffffffffffffffffffffffffffffffffffff1673ffffffffffffffffffffffffffffffffffffffff1673ffffffffffffffffffffffffffffffffffffffff1681526020016002820154815260200160038201548152602001600482015481525050838381518110610b4757610b4661188f565b5b60200260200101819052508180610b5d906118ed565b9250505b8080610b6c906118ed565b915050610a50565b50819350505050919050565b6003602052816000526040600020602052806000526040600020600091509150505481565b600060036000848152602001908152602001600020600083815260200190815260200160002054905092915050565b600160009054906101000a900473ffffffffffffffffffffffffffffffffffffffff1681565b60008054906101000a900473ffffffffffffffffffffffffffffffffffffffff1681565b6040518060a0016040528060008152602001600073ffffffffffffffffffffffffffffffffffffffff1681526020016000815260200160008152602001600081525090565b6000604051905090565b600080fd5b600080fd5b6000819050919050565b610c8a81610c77565b8114610c9557600080fd5b50565b600081359050610ca781610c81565b92915050565b600060208284031215610cc357610cc2610c6d565b5b6000610cd184828501610c98565b91505092915050565b600081519050919050565b600082825260208201905092915050565b6000819050602082019050919050565b610d0f81610c77565b82525050565b6000610d218383610d06565b60208301905092915050565b6000602082019050919050565b6000610d4582610cda565b610d4f8185610ce5565b9350610d5a83610cf6565b8060005b83811015610d8b578151610d728882610d15565b9750610d7d83610d2d565b925050600181019050610d5e565b5085935050505092915050565b60006020820190508181036000830152610db28184610d3a565b905092915050565b600073ffffffffffffffffffffffffffffffffffffffff82169050919050565b6000610de582610dba565b9050919050565b610df581610dda565b8114610e0057600080fd5b50565b600081359050610e1281610dec565b92915050565b600080600060608486031215610e3157610e30610c6d565b5b6000610e3f86828701610e03565b9350506020610e5086828701610c98565b9250506040610e6186828701610c98565b9150509250925092565b60008115159050919050565b610e8081610e6b565b82525050565b6000602082019050610e9b6000830184610e77565b92915050565b610eaa81610c77565b82525050565b610eb981610dda565b82525050565b600060a082019050610ed46000830188610ea1565b610ee16020830187610eb0565b610eee6040830186610ea1565b610efb6060830185610ea1565b610f086080830184610ea1565b9695505050505050565b600080600080600060a08688031215610f2e57610f2d610c6d565b5b6000610f3c88828901610c98565b9550506020610f4d88828901610c98565b9450506040610f5e88828901610c98565b9350506060610f6f88828901610c98565b9250506080610f8088828901610c98565b9150509295509295909350565b600081519050919050565b600082825260208201905092915050565b6000819050602082019050919050565b610fc281610dda565b82525050565b60a082016000820151610fde6000850182610d06565b506020820151610ff16020850182610fb9565b5060408201516110046040850182610d06565b5060608201516110176060850182610d06565b50608082015161102a6080850182610d06565b50505050565b600061103c8383610fc8565b60a08301905092915050565b6000602082019050919050565b600061106082610f8d565b61106a8185610f98565b935061107583610fa9565b8060005b838110156110a657815161108d8882611030565b975061109883611048565b925050600181019050611079565b5085935050505092915050565b600060208201905081810360008301526110cd8184611055565b905092915050565b600080604083850312156110ec576110eb610c6d565b5b60006110fa85828601610c98565b925050602061110b85828601610c98565b9150509250929050565b600060208201905061112a6000830184610ea1565b92915050565b6000819050919050565b600061115561115061114b84610dba565b611130565b610dba565b9050919050565b60006111678261113a565b9050919050565b60006111798261115c565b9050919050565b6111898161116e565b82525050565b60006020820190506111a46000830184611180565b92915050565b60006020820190506111bf6000830184610eb0565b92915050565b600080fd5b6000601f19601f8301169050919050565b7f4e487b7100000000000000000000000000000000000000000000000000000000600052604160045260246000fd5b611213826111ca565b810181811067ffffffffffffffff82111715611232576112316111db565b5b80604052505050565b6000611245610c63565b9050611251828261120a565b919050565b600067ffffffffffffffff821115611271576112706111db565b5b602082029050602081019050919050565b600080fd5b60008151905061129681610c81565b92915050565b60006112af6112aa84611256565b61123b565b905080838252602082019050602084028301858111156112d2576112d1611282565b5b835b818110156112fb57806112e78882611287565b8452602084019350506020810190506112d4565b5050509392505050565b600082601f83011261131a576113196111c5565b5b815161132a84826020860161129c565b91505092915050565b60006020828403121561134957611348610c6d565b5b600082015167ffffffffffffffff81111561136757611366610c72565b5b61137384828501611305565b91505092915050565b600080fd5b600080fd5b600080fd5b600067ffffffffffffffff8211156113a6576113a56111db565b5b6113af826111ca565b9050602081019050919050565b60005b838110156113da5780820151818401526020810190506113bf565b60008484015250505050565b60006113f96113f48461138b565b61123b565b90508281526020810184848401111561141557611414611386565b5b6114208482856113bc565b509392505050565b600082601f83011261143d5761143c6111c5565b5b815161144d8482602086016113e6565b91505092915050565b61145f81610e6b565b811461146a57600080fd5b50565b60008151905061147c81611456565b92915050565b6000606082840312156114985761149761137c565b5b6114a2606061123b565b905060006114b284828501611287565b600083015250602082015167ffffffffffffffff8111156114d6576114d5611381565b5b6114e284828501611428565b60208301525060406114f68482850161146d565b60408301525092915050565b60006020828403121561151857611517610c6d565b5b600082015167ffffffffffffffff81111561153657611535610c72565b5b61154284828501611482565b91505092915050565b600082825260208201905092915050565b7f456c656374696f6e206e6f742061637469766500000000000000000000000000600082015250565b600061159260138361154b565b915061159d8261155c565b602082019050919050565b600060208201905081810360008301526115c181611585565b9050919050565b7f416c726561647920766f74656420666f72207468697320706f736974696f6e2060008201527f696e20656c656374696f6e000000000000000000000000000000000000000000602082015250565b6000611624602b8361154b565b915061162f826115c8565b604082019050919050565b6000602082019050818103600083015261165381611617565b9050919050565b600060a082840312156116705761166f61137c565b5b61167a60a061123b565b9050600061168a84828501611287565b600083015250602061169e84828501611287565b602083015250604082015167ffffffffffffffff8111156116c2576116c1611381565b5b6116ce84828501611428565b60408301525060606116e284828501611287565b60608301525060806116f684828501611287565b60808301525092915050565b60006020828403121561171857611717610c6d565b5b600082015167ffffffffffffffff81111561173657611735610c72565b5b6117428482850161165a565b91505092915050565b7f506f736974696f6e206e6f7420696e20656c656374696f6e0000000000000000600082015250565b600061178160188361154b565b915061178c8261174b565b602082019050919050565b600060208201905081810360008301526117b081611774565b9050919050565b7f566f746572206e6f7420696e20636f6c6c656765000000000000000000000000600082015250565b60006117ed60148361154b565b91506117f8826117b7565b602082019050919050565b6000602082019050818103600083015261181c816117e0565b9050919050565b7f566f746572206e6f7420696e20686f7374656c00000000000000000000000000600082015250565b600061185960138361154b565b915061186482611823565b602082019050919050565b600060208201905081810360008301526118888161184c565b9050919050565b7f4e487b7100000000000000000000000000000000000000000000000000000000600052603260045260246000fd5b7f4e487b7100000000000000000000000000000000000000000000000000000000600052601160045260246000fd5b60006118f882610c77565b91507fffffffffffffffffffffffffffffffffffffffffffffffffffffffffffffffff820361192a576119296118be565b5b600182019050919050565b7f496e76616c69642063616e646964617465000000000000000000000000000000600082015250565b600061196b60118361154b565b915061197682611935565b602082019050919050565b6000602082019050818103600083015261199a8161195e565b9050919050565b60006060820190506119b66000830186610ea1565b6119c36020830185610ea1565b6119d06040830184610ea1565b94935050505056fea2646970667358221220a43a0ecceb61cffb71d6b0d3827447eba7eb3c2e2577cb249e7a6fcceb66511164736f6c63430008140033",
  "linkReferences": {},
  "deployedLinkReferences": {}
}